:100A66008F1B8C1C8D1D120B9F7FA0120A3D120B33
:100A76006BAF1B120A3D120B6BAF1D120A3D120B18
:040A86006B020003FC
:020A0D008F1B3D
:100A0F00120B9F7FA0120A3D120B6BAF1B120A3DF8
:100A1F00120B6B120B9F7FA1120A3D120B6B120A66
:0D0A2F00AD8F1C7F01120B77120003AF1C6E
:010A3C002297
:100B3300EF1FAC0670011E4C600A7D027CEFDCFEE9
:040B4300DDFC80EC69
:010B4700228B
:090B9F00D2A0D2A1C2A0C2A12281
:07000300C2A0D2A1D2A0228D
:020A3D00AD0703
:100A3F00E4FB74807E00A803088006CEA2E713CEE5
:100A4F0013D8F8FFEDF582EF558224FF92A0D2A1C3
:060A5F00C2A10BBB08DC84
:010A6500226E
:100AAD00E4FFD2A0FED2A130A00D7480A80608806C
:0D0ABD0002C313D8FC4207C2A10EBE08E818
:010ACA002209
:0A0B7700EF24FF92A0D2A1C2A12238
:0B0B6B00D2A0D2A1A2A0E433FFC2A1DF
:010B7600225C
:10083A00E4F51B20B1137F14FE120B3330B1FD7F98
:10084A00147E00120B33751B0120B0147F147E0036
:10085A00120B3330B0FD7F147E00120B33751B026E
:10086A0020B2147F147E00120B3330B2FD7F147E47
:10087A0000120B33751B0320B3147F147E00120B76
:10088A003330B3FD7F147E00120B33751B04AF1B8C
:01089A00223B
:1007CE00E4F51B75900FE590640F605DE590640F86
:1007DE00605775900FAF90EF24F5601024FE6011F6
:1007EE0014601324077019751B018014751B028089
:1007FE0008751B038003751B047F647E00120B3388
:10080E007590F0AF90EF2450601124E0601124F049
:10081E00601124707013851B1B800E740480067487
:0B082E00088002740C251BF51BAF1B9B
:01083900229C
:060B5C00C2A58F80D2A7A4
:080B62007F027EEFDEFEDFFCE6
:010B6A002268
:0A0B8100C2A6120B5CC2A7020B62B1
:100ACB00CFCDCFCECCCE1206537C007D0A1206536F
:040ADB00ED2430FFD7
:0A0ADF00D2A6120B5CC2A7020B6244
:100B1D00AE07BE0104ED148006BE0209ED243F446C
:060B2D0080FF120B812283
:100B48007F38120B817F0C120B817F06120B817F7D
:040B580001020B810A
:0A0B8B00AC03120B1DAF04020ADFD9
:060A8A008B1B8A1C891D74
:100A9000120B1DE4FDAB1BAA1CA91D8D82758300E2
:0C0AA000120614FF6006120ADF0D80E948
:010AAC002227
:0C09DA007F0AEA24FFFDE434FFFC7E00ED
:0809E6008E208F218C228D234D
:1009EE007F017E00E4FBEBC39523E5226480F8745F
:0E09FE008098500AAC20AD211206410B80E813
:010A0C0022C7
:040AE9008A1D8B1EB9
:100AED00120B1DAA1FEAD39400400D1209DAAC1D9A
:080AFD00AD1E120ACB1A80EDB8
:010B050022CD
:10092F00120B1DC3EA64809480400B7F2B120ADFE9
:10093F008A298B2A800E7F2D120ADFC3E49BF52AAA
:10094F00E49AF529AA28EAD39400400D1209DAACEB
:09095F0029AD2A120ACB1A80ED21
:01096800226C
:040969008A2D8B2E1A
:10096D00120B1DAA2FEAD3940040297F101209DC27
:10097D00AC2DAD2ECFCDCFCECCCE120653EF540F26
:10098D00FEC3940AEE5004243080022437FF120A6D
:04099D00DF1A80D10C
:0109A1002233
:0409A2008A328B33D7
:1009A600120B1DAA34EAD394004028EA24FFFDE482
:1009B60034FFFC7F027E001209E6AC32AD33CFCDA8
:1009C600CFCECCCE120653EF54012430FF120ADFED
:0309D6001A80D2B2
:0109D90022FB
:070BA8002D003A002020009F
:090B9500070F010101010000003D
:1006A800E50FFB3395E0FA751F027D017F01120A01
:1006B800E97BFF7A0B79A87D037F01120A8AE5108E
:1006C800FB3395E0FA751F027D047F01120AE97B6E
:1006D800FF7A0B79A87D067F01120A8AE511FB33A0
:1006E80095E0FA751F027D077F01120AE9E512FB02
:1006F8003395E0FA751F027D017F02120AE97BFF3C
:100708007A0B79AA7D037F02120A8AE513FB3395D7
:10071800E0FA751F027D047F02120AE97BFF7A0B5B
:1007280079AA7D067F02120A8AE514FB3395E0FA5E
:0A073800751F027D077F02020AE927
:10000E00E50CB4020B0517E51775F0068485F0179D
:10001E00E50C640360030201B8740F2517F806E5BA
:10002E001714602E14603F147003020178147003CD
:10003E00020180147003020196240560030201B8C8
:10004E00D3E50F648094E350030201B8E4F50F0288
:10005E0001B8D3E5106480948C50030201B875107A
:10006E0001050F0201B8E51014B40C0040030201A3
:10007E00B890008D75F003A4C58325F0C583730277
:10008E0000B10201500200C002011E0200CF0201A7
:10009E002C0200DE0200ED02013A0200FB020145D5
:1000AE00020109D3E5116480949F50030201B80246
:1000BE000171D3E5116480949F50030201B80201CF
:1000CE0071D3E5116480949F50030201B80201714F
:1000DE00D3E5116480949F50030201B8020171D3DD
:1000EE00E5116480949F50030201B88076D3E51128
:1000FE006480949F50030201B88068D3E511648038
:10010E00949F50030201B87511017510010201B8D8
:10011E00D3E5116480949E50030201B88045D3E567
:10012E00116480949E50030201B88037D3E51164A8
:10013E0080949E4075802CD3E5116480949E406A15
:10014E008021E50F75F0041205F2AFF0EF700BD3BE
:10015E00E5116480949D40528009D3E5116480942A
:10016E009C404775110105108040E5126418703AE5
:10017E008034D3E513648094BB402FE4F51305124D
:10018E00E51264187024801ED3E514648094BB407D
:10019E0019E4F5140513E513B43C0FE4F513051239
:1001AE00E512B41805E4F5120511E50C64046003BC
:1001BE00020418740F2517F816E51714602E146034
:1001CE003A1470030203EA1470030203FA14700364
:1001DE0002040A24056003020418C3E50F64809428
:1001EE00804003020418750F63020418E5106003C3
:1001FE0002041875100C150F020418E510B40D004A
:10020E00400302041890021AF828287302024102D1
:10021E0002470202600202A702037E0202EE0203FE
:10022E009A02030B0203280203B30203450203CC16
:10023E0002036275100C020418E511700675111F89
:10024E0075100CD3E5116480949F500302041802BC
:10025E0003E3E51075F0041205F2AFF0EF701DC365
:10026E00E51164809481500575111F1510D3E511A9
:10027E006480949D50030204180203E3C3E51164E5
:10028E00809481500575111F1510D3E5116480946B
:10029E009C50030204180203E3E51075F0041205E6
:1002AE00F2AFF0EF701DC3E51164809481500575B7
:1002BE00111D1510D3E5116480949F50030204188C
:1002CE000203E3C3E51164809481500575111C157A
:1002DE0010D3E5116480949F50030204180203E3C7
:1002EE00C3E51164809481500575111E1510D3E578
:1002FE00116480949F50030204180203E3C3E511B6
:10030E0064809481500575111E1510D3E51164801B
:10031E00949F50030204180203E3C3E51164809412
:10032E0081500575111E1510D3E5116480949F50F0
:10033E00030204180203E3C3E5116480948150059F
:10034E0075111E1510D3E5116480949F500302049D
:10035E00180203E3C3E51164809481500575111EE4
:10036E001510D3E5116480949F5003020418806524
:10037E00C3E51164809481500575111F1510D3E5E6
:10038E00116480949E50030204188049C3E51164E1
:10039E00809481500575111F1510D3E5116480945A
:1003AE009E40678030C3E5116480948150057511BD
:1003BE001F1510D3E5116480949E404E8017C3E53F
:1003CE001164809481500575111F1510D3E51164C9
:1003DE0080949E40357511010510802EC3E5126480
:1003EE0080948050257512171511801EC3E5136475
:1003FE00809480501575133B1512800EC3E514645E
:10040E00809480500575143B1513E5177014E5198B
:10041E00B4010F7BFF7A0B79AC7D017F01120A8A42
:10042E008011E50FFB3395E0FA751F027D017F0108
:10043E00120AE9E517B40114E519B4010F7BFF7A2E
:10044E000B79AC7D047F01120A8A8011E510FB3313
:10045E0095E0FA751F027D047F01120AE9E517B4D3
:10046E000214E519B4010F7BFF7A0B79AC7D077F7F
:10047E0001120A8A8011E511FB3395E0FA751F020D
:10048E007D077F01120AE9E517B40314E519B401DB
:10049E000F7BFF7A0B79AC7D017F02120A8A8011E5
:1004AE00E512FB3395E0FA751F027D017F02120AF9
:1004BE00E9E517B40414E519B4010F7BFF7A0B7943
:1004CE00AC7D047F02120A8A8011E513FB3395E09E
:1004DE00FA751F027D047F02120AE9E517B40512B0
:1004EE00E519B4010D7BFF7A0B79AC7D077F020213
:1004FE000A8AE514FB3395E0FA751F027D077F0229
:04050E00120AE922C2
:10051200120B48120B06E4FF120A0D8F0F7F011215
:100522000A0D8F107F02120A0D8F117F03120A0D1E
:100532008F127F04120A0D8F137F05120A0D8F147A
:10054200751A0112083A8F0E1207CE8F0CE50E644F
:10055200016009E50C640160030205E5E51A700417
:100562007F0180027F008F1A851318851416851566
:100572000DE50FFD3395E0FCE4FF120A667F057E70
:1005820000120B33E510FD3395E0FC7F01120A6681
:100592007F057E00120B33E511FD3395E0FC7F02EF
:1005A200120A667F057E00120B33E512FD3395E0D9
:1005B200FC7F03120A667F057E00120B33E513FDF2
:1005C2003395E0FC7F04120A667F057E00120B332E
:1005D200E514FD3395E0FC7F05120A667F057E0077
:1005E200120B33E51A700312000E1206A80205451B
:1008F200E51A60380515C3E515648094E44005E403
:10090200F5150514D3E514648094BB401FE4F51477
:100912000513D3E513648094BB4011E4F51305126B
:0D092200D3E512648094974003E4F512229F
:03000B0002089B4D
:09089B00C0E0C0D075D000C00718
:1008A400758A18758CFC0509E50970020508050BA5
:1008B400E50B7002050AC3E5099464E50894004059
:1008C40012750800750900E51970047F0180027F24
:1008D400008F19C3E50B940AE50A94004009750AD0
:0708E40000750B001208F281
:0708EB00D007D0D0D0E032AD
:100B06005389F0438901758A18758CFCC28DD28C85
:070B1600D2A9D2AFC2B9223F
:03000000020742B2
:0C074200787FE4F6D8FD75813402078949
:1005F200C2D530F707B2D563F0FF05F030E70CB291
:10060200D5F4048463F0FF05F080018430D502F450
:020612000422C0
:10061400BB010CE58229F582E5833AF583E022509B
:1006240006E92582F8E622BBFE06E92582F8E222E5
:0D063400E58229F582E5833AF583E49322FF
:10064100EF8DF0A4A8F0CF8CF0A428CE8DF0A42ECD
:02065100FE2287
:10065300BC000BBE0029EF8DF084FFADF022E4CC8B
:10066300F875F008EF2FFFEE33FEEC33FCEE9DEC54
:10067300984005FCEE9DFE0FD5F0E9E4CEFD22ED9A
:10068300F8F5F0EE8420D21CFEADF075F008EF2FE4
:10069300FFED33FD4007985006D5F0F222C398FDD5
:0506A3000FD5F0EA2272
:10074E00020512E493A3F8E493A34003F68001F2AA
:10075E0008DFF48029E493A3F85407240CC8C333AC
:10076E00C4540F4420C8834004F456800146F6DF7B
:10077E00E4800B0102040810204080900B95E47E6B
:10078E00019360BCA3FF543F30E509541FFEE49370
:10079E00A360010ECF54C025E060A840B8E493A337
:1007AE00FAE493A3F8E493A3C8C582C8CAC583CA62
:1007BE00F0A3C8C582C8CAC583CADFE9DEE780BE1A
:010B9E000056
:00000001FF
